:020000040800F2
:10000000000001200D2D00083D23000845230008B5
:100010004D230008552300085D2300080000000060
:100020000000000000000000000000006523000840
:1000300071230008000000007D23000889230008C8
:10004000552D0008552D0008552D0008552D000888
:10005000552D0008552D0008552D0008552D000878
:10006000552D0008552D0008552D0008552D000868
:10007000552D0008552D0008552D0008552D000858
:10008000552D0008552D0008552D0008552D000848
:10009000552D0008552D0008552D0008552D000838
:1000A000552D0008552D0008552D0008552D000828
:1000B000552D0008552D000895230008552D0008E2
:1000C000552D0008552D0008552D0008552D000808
:1000D000552D0008552D0008552D0008552D0008F8
:1000E000552D0008552D0008552D0008552D0008E8
:1000F000552D0008552D0008552D0008552D0008D8
:10010000552D0008552D0008552D0008552D0008C7
:10011000552D0008552D0008A9230008552D00086D
:10012000552D0008552D0008552D0008552D0008A7
:1001300000000000000000000000000000000000BF
:1001400000000000000000000000000000000000AF
:10015000000000000000000000000000000000009F
:10016000000000000000000000000000000000008F
:10017000000000000000000000000000000000007F
:10018000000000000000000000000000000000006F
:10019000000000000000000000000000000000005F
:1001A000000000000000000000000000000000004F
:1001B000000000000000000000000000000000003F
:1001C000000000000000000000000000000000002F
:1001D000000000000000000000000000000000001F
:0401E0005FF8E0F1F3
:1001E80010B5054C237833B9044B13B10448AFF369
:1001F80000800123237010BDDC01002000000000F6
:10020800A0DE000808B5034B1BB103490348AFF350
:10021800008008BD00000000E0010020A0DE00080A
:10022800034613F8012B002AFBD1181A013870472E
:100238004FF0FF0C1CEAD0521EBF1CEAD15392EAC1
:100248000C0F93EA0C0F6FD01A4480EA010C40029D
:1002580018BF5FEA41211ED04FF0006343EA5010F7
:1002680043EA5111A0FB01310CF00040B1F5000F39
:100278003EBF490041EAD3715B0040EA010062F1E8
:100288007F02FD2A1DD8B3F1004F40EBC25008BFD2
:1002980020F00100704790F0000F0CF0004C08BFF0
:1002A80049024CEA502040EA51207F3AC2BFD2F1BD
:1002B800FF0340EAC250704740F400004FF00003CB
:1002C800013A5DDC12F1190FDCBF00F00040704705
:1002D800C2F10002410021FA02F1C2F1200200FA43
:1002E80002FC5FEA310040F1000053EA4C0308BF0A
:1002F80020EADC70704792F0000F00F0004C02BF5B
:10030800400010F4000F013AF9D040EA0C0093F0D5
:10031800000F01F0004C02BF490011F4000F013B2F
:10032800F9D041EA0C018FE70CEAD15392EA0C0F9D
:1003380018BF93EA0C0F0AD030F0004C18BF31F008
:10034800004CD8D180EA010000F00040704790F0DE
:10035800000F17BF90F0004F084691F0000F91F082
:10036800004F14D092EA0C0F01D142020FD193EA48
:100378000C0F03D14B0218BF084608D180EA0100D0
:1003880000F0004040F0FE4040F40000704740F0AC
:10039800FE4040F44000704781F0004102E000BF99
:1003A80083F0004330B54FEA41044FEA430594EA2D
:1003B800050F08BF90EA020F1FBF54EA000C55EA68
:1003C800020C7FEA645C7FEA655C00F0E2804FEA39
:1003D8005454D4EB5555B8BF6D420CDD2C4480EA1B
:1003E800020281EA030382EA000083EA010180EA4B
:1003F800020281EA0303362D88BF30BD11F0004F99
:100408004FEA01314FF4801C4CEA113102D04042CE
:1004180061EB410113F0004F4FEA03334CEA133309
:1004280002D0524263EB430394EA050F00F0A78021
:10043800A4F10104D5F1200E0DDB02FA0EFC22FA1C
:1004480005F2801841F1000103FA0EF2801843FA10
:1004580005F359410EE0A5F120050EF1200E012A01
:1004680003FA0EFC28BF4CF0020C43FA05F3C0183F
:1004780051EBE37101F0004507D54FF0000EDCF1B8
:10048800000C7EEB00006EEB0101B1F5801F1BD361
:10049800B1F5001F0CD349085FEA30004FEA3C0C65
:1004A80004F101044FEA445212F5800F80F09A805B
:1004B800BCF1004F08BF5FEA500C50F1000041EB5F
:1004C800045141EA050130BD5FEA4C0C404141EB63
:1004D8000101013C28BFB1F5801FE9D291F0000F5E
:1004E80004BF01460020B1FA81F308BF2033A3F10D
:1004F8000B03B3F120020CDA0C3208DD02F1140C04
:10050800C2F10C0201FA0CF021FA02F10CE002F13E
:100518001402D8BFC2F1200C01FA02F120FA0CFC37
:10052800DCBF41EA0C019040E41AA2BF01EB045180
:10053800294330BD6FEA04041F3C1CDA0C340EDC7E
:1005480004F11404C4F1200220FA04F001FA02F3C1
:1005580040EA030021FA04F345EA030130BDC4F17F
:100568000C04C4F1200220FA02F001FA04F340EA74
:100578000300294630BD21FA04F0294630BD94F025
:10058800000F83F4801306BF81F480110134013D0C
:100598004EE77FEA645C18BF7FEA655C29D094EA7D
:1005A800050F08BF90EA020F05D054EA000C04BFFB
:1005B8001946104630BD91EA030F1EBF00210020E6
:1005C80030BD5FEA545C05D14000494128BF41F085
:1005D800004130BD14F580043CBF01F5801130BDE9
:1005E80001F0004545F0FE4141F470014FF0000074
:1005F80030BD7FEA645C1ABF194610467FEA655C25
:100608001CBF0B46024650EA013406BF52EA0335C6
:1006180091EA030F41F4002130BD00BF90F0000FB4
:1006280004BF0021704730B54FF4806404F13204F0
:100638004FF000054FF0000150E700BF90F0000FA9
:1006480004BF0021704730B54FF4806404F13204D0
:1006580010F0004548BF40424FF000013EE700BFA0
:1006680042004FEAE2014FEA31014FEA02701FBF30
:1006780012F07F4393F07F4F81F06051704732F062
:100688007F4208BF704793F07F4F04BF41F40021B9
:10069800704730B54FF4607401F0004521F0004117
:1006A8001CE700BF50EA010208BF704730B54FF0A1
:1006B80000050AE050EA010208BF704730B511F0A2
:1006C800004502D5404261EB41014FF4806404F1DA
:1006D80032045FEA915C3FF4D8AE4FF003025FEA60
:1006E800DC0C18BF03325FEADC0C18BF033202EBE4
:1006F800DC02C2F1200300FA03FC20FA02F001FA3E
:1007080003FE40EA0E0021FA02F11444BDE600BFE0
:1007180070B54FF0FF0C4CF4E06C1CEA11541DBF8F
:100728001CEA135594EA0C0F95EA0C0F00F0DEF85A
:100738002C4481EA030621EA4C5123EA4C5350EA3F
:10074800013518BF52EA033541F4801143F4801390
:1007580038D0A0FB02CE4FF00005E1FB02E506F021
:100768000042E0FB03E54FF00006E1FB03569CF076
:10077800000F18BF4EF0010EA4F1FF04B6F5007F7C
:1007880064F5407404D25FEA4E0E6D4146EB0606EE
:1007980042EAC62141EA55514FEAC52040EA5E5077
:1007A8004FEACE2EB4F1FD0C88BFBCF5E06F1ED821
:1007B800BEF1004F08BF5FEA500E50F1000041EB58
:1007C800045170BD06F0004646EA010140EA020005
:1007D80081EA0301B4EB5C04C2BFD4EB0C0541EA27
:1007E800045170BD41F480114FF0000E013C00F33C
:1007F800AB8014F1360FDEBF002001F0004170BD60
:10080800C4F10004203C35DA0C341BDC04F1140478
:10081800C4F1200500FA05F320FA04F001FA05F204
:1008280040EA020001F0004221F0004110EBD370D1
:1008380021FA04F642EB06015EEA430E08BF20EAFD
:10084800D37070BDC4F10C04C4F1200500FA04F3A0
:1008580020FA05F001FA04F240EA020001F0004132
:1008680010EBD37041F100015EEA430E08BF20EAA5
:10087800D37070BDC4F1200500FA05F24EEA020EED
:1008880020FA04F301FA05F243EA020321FA04F01C
:1008980001F0004121FA04F220EA020000EBD370D3
:1008A8005EEA430E08BF20EAD37070BD94F0000FD3
:1008B8000FD101F00046400041EB010111F4801F07
:1008C80008BF013CF7D041EA060195F0000F18BFB8
:1008D800704703F00046520043EB030313F4801FF4
:1008E80008BF013DF7D043EA0603704794EA0C0FAE
:1008F8000CEA135518BF95EA0C0F0CD050EA4106C4
:1009080018BF52EA4306D1D181EA030101F0004140
:100918004FF0000070BD50EA410606BF1046194668
:1009280052EA430619D094EA0C0F02D150EA013674
:1009380013D195EA0C0F05D152EA03361CBF1046B5
:1009480019460AD181EA030101F0004141F0FE4154
:1009580041F470014FF0000070BD41F0FE4141F4D8
:10096800780170BD70B54FF0FF0C4CF4E06C1CEAD8
:1009780011541DBF1CEA135594EA0C0F95EA0C0F8D
:1009880000F0A7F8A4EB050481EA030E52EA033548
:100998004FEA013100F088804FEA03334FF0805569
:1009A80045EA131343EA12634FEA022245EA111596
:1009B80045EA10654FEA00260EF000419D4208BF47
:1009C800964244F1FD0404F5407402D25B084FEAF4
:1009D8003202B61A65EB03055B084FEA32024FF4A0
:1009E80080104FF4002CB6EB020E75EB030E22BFFD
:1009F800B61A754640EA0C005B084FEA3202B6EBBD
:100A0800020E75EB030E22BFB61A754640EA5C006B
:100A18005B084FEA3202B6EB020E75EB030E22BFFB
:100A2800B61A754640EA9C005B084FEA3202B6EBFC
:100A3800020E75EB030E22BFB61A754640EADC00BB
:100A480055EA060E18D04FEA051545EA16754FEA1D
:100A580006164FEAC30343EA52734FEAC2025FEA3B
:100A68001C1CC0D111F4801F0BD141EA00014FF0CA
:100A780000004FF0004CB6E711F4801F04BF01439B
:100A88000020B4F1FD0C88BFBCF5E06F3FF6AFAEB7
:100A9800B5EB030C04BFB6EB020C5FEA500C50F147
:100AA800000041EB045170BD0EF0004E4EEA1131CA
:100AB80014EB5C04C2BFD4EB0C0541EA045170BDD1
:100AC80041F480114FF0000E013C90E645EA060E15
:100AD8008DE60CEA135594EA0C0F08BF95EA0C0F43
:100AE8003FF43BAF94EA0C0F0AD150EA01347FF48B
:100AF80034AF95EA0C0F7FF425AF104619462CE762
:100B080095EA0C0F06D152EA03353FF4FDAE1046C4
:100B1800194622E750EA410618BF52EA43067FF415
:100B2800C5AE50EA41047FF40DAF52EA43057FF4A5
:100B3800EBAE12E74FF0FF3C06E000BF4FF0010CB0
:100B480002E000BF4FF0010C4DF804CD4FEA410C14
:100B58007FEA6C5C4FEA430C18BF7FEA6C5C1BD0E1
:100B680001B050EA410C0CBF52EA430C91EA030F62
:100B780002BF90EA020F0020704710F1000F91EABF
:100B8800030F58BF994208BF90422CBFD8176FEA8D
:100B9800E37040F0010070474FEA410C7FEA6C5C5B
:100BA80002D150EA013C07D14FEA430C7FEA6C5C62
:100BB800D6D152EA033CD3D05DF8040B704700BF8E
:100BC8008446104662468C461946634600E000BFDC
:100BD80001B5FFF7B7FF002848BF10F1000F01BDAE
:100BE8004DF808EDFFF7F4FF0CBF012000205DF879
:100BF80008FB00BF4DF808EDFFF7EAFF34BF0120FE
:100C080000205DF808FB00BF4DF808EDFFF7E0FF96
:100C180094BF012000205DF808FB00BF4DF808EDE7
:100C2800FFF7CEFF94BF012000205DF808FB00BF4E
:100C38004DF808EDFFF7C4FF34BF012000205DF830
:100C480008FB00BF4FEA410C7FEA6C5C02D150EA16
:100C5800013C0AD14FEA430C7FEA6C5C02D152EAAC
:100C6800033C02D14FF0000070474FF0010070477D
:100C78004FEA410212F5001215D211D56FF47873BC
:100C8800B3EB625212D94FEAC12343F0004343EA5F
:100C9800505311F0004F23FA02F018BF404270473A
:100CA8004FF00000704750EA013005D111F00040C4
:100CB80008BF6FF0004070474FF00000704700BF5A
:100CC8004A0011D212F5001211D20DD56FF47873C3
:100CD800B3EB62520ED44FEAC12343F0004343EA18
:100CE800505323FA02F070474FF00000704750EA63
:100CF800013002D14FF0FF3070474FF000007047CD
:100D08004FEA4102B2F1E04324BFB3F5001CDCF125
:100D1800FE5C0DD901F0004C4FEAC0024CEA50705D
:100D2800B2F1004F40EB830008BF20F0010070478C
:100D380011F0804F21D113F13872BCBF01F000408F
:100D4800704741F480114FEA5252C2F11802C2F1C1
:100D5800200C10FA0CF320FA02F018BF40F0010042
:100D68004FEAC1234FEAD32303FA0CFC40EA0C00F4
:100D780023FA02F34FEA4303CCE77FEA625307D131
:100D880050EA01331EBF4FF0FE4040F44000704768
:100D980001F0004040F0FE4040F40000704700BF02
:100DA80080F0004002E000BF81F0004142001FBF18
:100DB8005FEA410392EA030F7FEA226C7FEA236C21
:100DC8006AD04FEA1262D2EB1363C1BFD218414016
:100DD80048404140B8BF5B42192B88BF704710F0AC
:100DE800004F40F4000020F07F4018BF404211F04F
:100DF800004F41F4000121F07F4118BF494292EAB7
:100E0800030F3FD0A2F1010241FA03FC10EB0C00E2
:100E1800C3F1200301FA03F100F0004302D549426F
:100E280060EB4000B0F5000F13D3B0F1807F06D31C
:100E380040084FEA310102F10102FE2A51D2B1F114
:100E4800004F40EBC25008BF20F0010040EA030009
:100E58007047490040EB0000013A28BFB0F5000F89
:100E6800EDD2B0FA80FCACF1080CB2EB0C0200FA3F
:100E78000CF0AABF00EBC25052421843BCBFD0408E
:100E88001843704792F0000F81F4000106BF80F408
:100E980000000132013BB5E74FEA41037FEA226CCB
:100EA80018BF7FEA236C21D092EA030F04D092F096
:100EB800000F08BF0846704790EA010F1CBF0020CA
:100EC800704712F07F4F04D1400028BF40F0004027
:100ED800704712F100723CBF00F50000704700F047
:100EE800004343F0FE4040F4000070477FEA22626E
:100EF80016BF08467FEA23630146420206BF5FEA3F
:100F0800412390EA010F40F4800070474FF000033E
:100F180004E000BF10F0004348BF40425FEA000C05
:100F280008BF704743F0964301464FF000001CE0AD
:100F380050EA010208BF70474FF000030AE000BF03
:100F480050EA010208BF704711F0004302D5404241
:100F580061EB41015FEA010C02BF844601460020B3
:100F680043F0B64308BFA3F18053A3F50003BCFACE
:100F78008CF2083AA3EBC25310DB01FA02FC63447B
:100F880000FA02FCC2F12002BCF1004F20FA02F282
:100F980043EB020008BF20F00100704702F1200275
:100FA80001FA02FCC2F1200250EA4C0021FA02F2D6
:100FB80043EB020008BF20EADC7070474FF0FF3CAB
:100FC80006E000BF4FF0010C02E000BF4FF0010C3B
:100FD8004DF804CD4FEA40024FEA41037FEA226C04
:100FE80018BF7FEA236C11D001B052EA530C18BF26
:100FF80090EA010F58BFB2EB030088BFC81738BF8B
:101008006FEAE17018BF40F0010070477FEA226C78
:1010180002D15FEA402C05D17FEA236CE4D15FEA74
:10102800412CE1D05DF8040B704700BF84460846A8
:101038006146FFE70FB5FFF7C9FF002848BF10F169
:10104800000F0FBD4DF808EDFFF7F4FF0CBF0120AE
:1010580000205DF808FB00BF4DF808EDFFF7EAFF38
:1010680034BF012000205DF808FB00BF4DF808EDF3
:10107800FFF7E0FF94BF012000205DF808FB00BFE8
:101088004DF808EDFFF7D2FF94BF012000205DF86E
:1010980008FB00BF4DF808EDFFF7C8FF34BF01207B
:1010A80000205DF808FB00BF4FEA4002B2F1FE4F96
:1010B8000FD34FF09E03B3EB12620DD94FEA002312
:1010C80043F0004310F0004F23FA02F018BF4042EB
:1010D80070474FF00000704712F1610F01D14202D2
:1010E80005D110F0004008BF6FF0004070474FF086
:1010F8000000704742000ED2B2F1FE4F0BD34FF002
:101108009E03B3EB126209D44FEA002343F0004375
:1011180023FA02F070474FF00000704712F1610F98
:1011280001D1420202D14FF0FF3070474FF000006A
:10113800704700BF38B50022002304460D46FFF76C
:1011480059FD28B920462946BDE8384000F00AB8BC
:10115800204605F1004100F005F8404261EB4101ED
:1011680038BD00BFD0B500220B4B06460F46FFF72F
:10117800CFFAFFF7A5FD0446FFF750FA0022074B08
:10118800FFF7C6FA02460B4630463946FFF708F91C
:10119800FFF796FD2146D0BD0000F03D0000F0416C
:1011A80080B58EB000AF07F11C0300221A605A60A8
:1011B8009A60DA601A615A619A613B4600221A60A5
:1011C8005A609A60DA601A615A619A61304B4FF03E
:1011D80020421A602E4B2F4A5A602D4B06229A60E5
:1011E8002B4B0022DA602A4B00221A61284B10226E
:1011F8005A61274B00229A61254B0022DA61244B61
:1012080000221A62224B00225A62214B4FF480526C
:101218009A621F4B0022DA621D4B4FF480421A6318
:101228001B4B00225A631A4B00229A630023FB616E
:101238000F233B6201237B620023BB621023FB6206
:1012480011233B6300237B6300233B600F237B60F8
:101258000123BB600023FB6010233B6111237B61EA
:101268000023BB613A4607F11C031946084806F0FB
:10127800C7FA0346002B01D001F022F8064BDB69C0
:10128800054A43F48063D36100BF3837BD4680BD4B
:10129800F8010020040100A00000014080B586B0DC
:1012A80000AF07F1080300221A605A609A60DA60FA
:1012B8001F4B1B68002B36D11D4B01221A601D4B9A
:1012C8005B691C4A43F4807353611A4B5B6903F4EE
:1012D80080737B607B6841F20103BB600223FB6083
:1012E80003237B6107F108031946134805F058FBEF
:1012F8004FF68073BB600223FB6003237B6107F119
:10130800080319460D4805F04BFB4CF23373BB60DC
:101318000223FB6003237B6107F108031946084891
:1013280005F03EFB00E000BF1837BD4680BD00BF9A
:101338004002002000100240002001400018014037
:101348000014014080B582B000AF7860FFF7A6FFB7
:1013580000BF0837BD4680BD80B58CB000AF07F12F
:10136800200300221A605A609A60DA60694B9B6910
:10137800684A43F040039361664B9B6903F040035E
:10138800FB61FB69634B9B69624A43F010039361FD
:10139800604B9B6903F01003BB61BB695D4B9B69A4
:1013A8005C4A43F0800393615A4B9B6903F08003C6
:1013B8007B617B69574B9B69564A43F004039361F1
:1013C800544B9B6903F004033B613B69514B9B6998
:1013D800504A43F0080393614E4B9B6903F008039E
:1013E800FB60FB684B4B9B694A4A43F480739361EB
:1013F800484B9B6903F48073BB60BB68454B9B6992
:10140800444A43F020039361424B9B6903F0200355
:101418007B607B68012220213F4805F06CFC00229C
:1014280040213D4805F067FC012202213B4805F0B8
:1014380062FC00220421394805F05DFC01222121CB
:10144800374805F058FC00224FF48071344805F005
:1014580052FC08233B6200237B620023BB6207F136
:10146800200319462C4805F09BFA10233B62002301
:101478007B620123BB6207F120031946264805F069
:101488008FFA60233B6201237B620123BB62032343
:10149800FB6207F1200319461F4805F081FA06236D
:1014A8003B6201237B620123BB620323FB6207F1DA
:1014B80020031946194805F073FA01233B620023FB
:1014C8007B620223BB6207F120031946154805F029
:1014D80067FA21233B6201237B620123BB6203235A
:1014E800FB6207F1200319460D4805F059FA4FF43D
:1014F80080733B6201237B620223BB620323FB628E
:1015080007F120031946064805F04AFA00BF3037AC
:10151800BD4680BD0010024000180140001C01407B
:10152800000C01400008014080B500AF124B134A7F
:101538001A60114B124A5A600F4B00229A600E4BE8
:101548000022DA600C4B4FF480421A610A4B0022E9
:101558005A61094B00229A61074B0022DA61064B57
:1015680000221A62044805F0F7FB0346002B01D05D
:1015780000F0A6FE00BF80BD4402002000580040D5
:10158800801A060080B588B000AF786007F11003B4
:1015980000221A605A609A60DA607B681B68164AF3
:1015A800934224D1154B9B69144A43F00803936175
:1015B800124B9B6903F00803FB60FB684FF4406320
:1015C8003B6112237B610323FB6107F1100319467A
:1015D8000B4805F0E5F9094BDB69084A43F4800339
:1015E800D361064BDB6903F48003BB60BB6800BFB3
:1015F8002037BD4680BD00BF0058004000100240A3
:10160800000C014000000000B0B586B000AFF860E3
:10161800B9607A60B968F868FFF7C6FB03461A46EE
:101628007B68DA607B68DB681846FFF719F85AA30D
:10163800D3E90023FFF76CF802460B4614461D4613
:101648005D4BB3F900301846FEF7F8FF54A3D3E911
:101658000023FFF75DF802460B4620462946FEF7B1
:10166800A1FE02460B4610461946FFF701FB03464A
:101678001AB2524B1A80514BB3F900204E4B1A80C4
:101688007B689C694D4BB3F900301846FFF742FC64
:10169800034619462046FFF789FB03461A467B682E
:1016A8009A617B689B6946491846FFF7F3FC034635
:1016B800002B03D07B68424A9A610BE07B689B69E8
:1016C80040491846FFF7C8FC0346002B02D07B6848
:1016D8003C4A9A617B68DA687B681B691946104640
:1016E800FFF762FB03467B617869FEF7B9FF2EA31B
:1016F800D3E90023FFF70CF802460B4614461D46B3
:10170800314B1B681846FEF7ABFF29A3D3E900232A
:10171800FEF7FEFF02460B4620462946FEF742FE2C
:1017280002460B4610461946FFF7EAFA0346264AD0
:1017380013607B681A687B68DB6819461046FEF7F9
:1017480077FD03461C467B685A687B689B69194687
:101758001046FEF76DFD034619462046FFF726FBA7
:1017680003461C467B689B68174A12681146184650
:10177800FEF75EFD034619462046FFF717FB0346B2
:101788003B617B68DA687B681A613B6918461837E1
:10179800BD46B0BDAFF30080333333333333D33F6B
:1017A800666666666666E63F333333333333E33F54
:1017B8009A9999999999D93FA0020020A2020020EC
:1017C80000009643000096C3A402002080B500AF35
:1017D80001220221044805F08EFA00220421024861
:1017E80005F089FA00BF80BD001C014080B500AF3C
:1017F80000220221044805F07EFA01220421024851
:1018080005F079FA00BF80BD001C014080B500AF2B
:1018180001222021044805F06EFA002240210248E6
:1018280005F069FA00BF80BD0018014080B500AF1F
:1018380000222021044805F05EFA012240210248D6
:1018480005F059FA00BF80BD0018014000000000F3
:10185800B0B5A4B004AF002387F87930002387F827
:101868007F3000237B6707F13C0300221A605A602F
:101878009A60DA601A615A619A61494BFB6304F015
:101888001FFF00F015FB482007F036FFFFF764FD47
:10189800FFF786FC00F0B2FF00F054FE00F006FFF0
:1018A80000F058FF01F026F8FFF73EFE01F0AEF910
:1018B80004F062FA00213B4806F0F6F804213948A2
:1018C80006F0F2F80021384806F0EEF80421364810
:1018D80006F0EAF8354B1B686FF001021A613348CD
:1018E80006F02AF8324B4FF478421A60314B87F8E9
:1018F80073303149314800F0CDFBB7F97C301846D8
:1019080000F04CFB0346A7F87C30B7F97A3018464C
:1019180000F072FB03469BB25B429BB2A7F87A3099
:10192800274BB3F900301846FFF7F4FA0446B7F925
:101938007C301846FFF7EEFA014607F13C031A46D9
:101948002046FFF761FEF8664FF00001F86EFFF7DA
:1019580083FB0346002B02D0FFF748FF01E0FFF7A7
:1019680035FF174BB3F900301846FFF7D3FA044692
:10197800B7F97A301846FFF7CDFA014607F13C036C
:101988001A462046FFF740FEB8664FF00001B86ED1
:10199800FFF780FB0346002B14D0FFF737FF13E057
:1019A8000000E6420803002050030020E003002066
:1019B80004000020B8DE00089C02002098020020E5
:1019C800A8020020FFF732FFB86EFFF76DFB034651
:1019D80083EAE372A2EBE372D24B1B685A63F86E98
:1019E800FFF762FB034683EAE372A2EBE372CD4B97
:1019F8001B681A64F86EFFF757FB0346002BB8BF45
:101A08005B421A464FF478430193102300930A234C
:101A1800D221642004F08AFC4FF478430293C24B2D
:101A28000193102300931023F022D2210A2004F0FE
:101A3800F5FC4FF478430293BC4B019310230093B9
:101A48001023F022E6210A2004F0E8FCFB6B18467C
:101A5800FFF750FB02464FF478430193102300939D
:101A68000A23E621642004F061FC4FF478430293D2
:101A7800AF4B0193102300931023F022FA210A2080
:101A880004F0CCFC3B6C1846FFF734FB02464FF4DD
:101A980078430193102300930A23FA21642004F069
:101AA80045FCB7F97C2007F11803A249184608F04D
:101AB800C3FDA14BB3F900301A463B1D9D4918469A
:101AC80008F0BAFDFB6B1846FEF7CAFD04460D4642
:101AD8003B6C1846FEF7C4FD02460B46381D07F15D
:101AE8001801CDE90223CDE900450246934808F0E4
:101AF80091FD04F09BFD034687F8673097F867303F
:101B0800002B00F09C8197F867201F230193102376
:101B1800009303234FF487710A2004F007FC884BD5
:101B28001B781A461F2301931023009303234FF4B5
:101B380091710A2004F0FAFB97F867305E2B00F2E7
:101B4800818101A252F823F0CD1C00084D1E000827
:101B58004D1E00084D1E00084D1E00084D1E0008B1
:101B68004D1E00081F1D0008CB1D00087B1D000826
:101B78004D1E00084D1E0008911D00088D1D00080F
:101B88004D1E00084D1E00084D1E00084D1E000881
:101B98004D1E00084D1E00084D1E0008751D00084A
:101BA800811D00084D1E00089F1D0008871D0008A4
:101BB8004D1E00084D1E0008D71D00084D1E0008C8
:101BC8004D1E00084D1E00084D1E00084D1E000841
:101BD8004D1E00084D1E00084D1E00084D1E000831
:101BE8004D1E00084D1E00084D1E00084D1E000821
:101BF8004D1E00084D1E00084D1E00084D1E000811
:101C08004D1E00084D1E00084D1E00084D1E000800
:101C18004D1E00084D1E00084D1E00084D1E0008F0
:101C28004D1E00084D1E00084D1E00084D1E0008E0
:101C38004D1E00084D1E00084D1E00084D1E0008D0
:101C48004D1E00084D1E0008071D00084D1E000807
:101C5800271E0008131D0008191D0008D31C0008C2
:101C6800011D00080D1D00084D1E00084D1E00082E
:101C7800331E00084D1E00084D1E00084D1E0008AA
:101C88004D1E00084D1E00084D1E00084D1E000880
:101C98004D1E00084D1E00084D1E00084D1E000870
:101CA8004D1E00084D1E00084D1E00084D1E000860
:101CB800FF1D00084D1E00084D1E00084D1E00089F
:101CC800B51D00081F4B7B67BCE01F4B7B670022DC
:101CD80002211E4805F00FF8002204211B4805F0D8
:101CE8000AF8002220211A4805F005F800224021B0
:101CF800174805F000F8A5E0164B7B67A2E0164BE5
:101D08007B679FE0154B7B679CE0154B7B6799E0F1
:101D1800144B7B6796E0144B7B67074B00221A80B5
:101D280090E000BFC0020020C4DE0008CCDE00083E
:101D3800D0DE0008D4DE0008A8020020D8DE0008A3
:101D480088040020ECDE0008F4DE0008001C0140D6
:101D580000180140FCDE000800DF000808DF00086A
:101D680014DF00081CDF000824DF0008404B7B67F5
:101D780068E0404B7B6765E03F4B7B6762E03F4B29
:101D88007B675FE03E4B7B673E4B7B673E4B4FF686
:101D9800EC721A8056E03D4B7B67FB6B4FF07C5131
:101DA8001846FFF703F80346FB634BE0384B7B67A5
:101DB800FB6B4FF07C511846FEF7F6FF0346FB63BA
:101DC80040E0344B7B67304B14221A803AE0324BA8
:101DD8007B673B6C1846FEF743FC23A3D3E900233B
:101DE800FEF7E0FA02460B4610461946FEF788FF52
:101DF80003463B6426E0294B7B673B6C1846FEF79D
:101E08002FFC19A3D3E90023FEF7CAFA02460B46B2
:101E180010461946FEF774FF03463B6412E0204B58
:101E28007B67194B32221A800CE01E4B7B673B6C98
:101E38001D491846FEF7BAFF03463B6402E00A2034
:101E480007F0A8FC97F87F30013387F87F3097F8C0
:101E58007F30142B7FF44DAD002387F87F3020218D
:101E6800124804F060FF44E59A9999999999B93F05
:101E78002CDF000834DF00083CDF000840DF0008E2
:101E880044DF000848DF0008A80200204CDF0008F3
:101E980050DF000854DF000858DF00085CDF000846
:101EA80060DF000864DF00080000A040000C01406B
:101EB80080B590B000AF07F118032822002118461A
:101EC80008F01DFC3B1D00221A605A609A60DA6017
:101ED8001A610123BB614FF48033FB6100233B622D
:101EE8000123BB6202237B634FF48033BB634FF44F
:101EF800E013FB6307F11803184605F071F8034671
:101F0800002B01D000F0DCF90F237B600223BB60BB
:101F18000023FB604FF480633B6100237B613B1D22
:101F28000221184605F0DEFA0346002B01D000F026
:101F3800C7F900BF4037BD4680BD000080B588B0F6
:101F480004AF78607B681B685B6AA3F5FF437F3B3F
:101F5800FB607B681B6847F6FF725A624FF4784350
:101F680002930D4B0193102300931023F02232218A
:101F78000A2004F053FAFA684FF4784301931023C7
:101F880000930A2346210A2004F0D0F9FB6818467A
:101F98001037BD4680BD00BF6CDF000880B582B039
:101FA80000AF0346FB800F48FFF7C8FF02460E4B01
:101FB8001B6813440C4A13600B4B1A680B4B1B68C5
:101FC800D31A0B4A82FB03125210DB17D31AFB8079
:101FD800054B1B68054A1360B7F9063018460837E1
:101FE800BD4680BD50030020AC020020B002002096
:101FF800676666660000000080B582B000AF0346E1
:10200800FB801F48FFF79AFF02461E4B1B681344CC
:102018001C4A13601B4B1A681B4B1B68D31A1846C3
:10202800FEF70CFB14A3D3E90023FEF771FB02466D
:102038000B46104619464FF00002144BFEF768FB9A
:1020480002460B46104619464FF00002104BFEF7A9
:1020580089FC02460B4610461946FEF709FE034660
:10206800FB80084B1B68084A1360B7F9063018460E
:102078000837BD4680BD00BF3333333333B33440F4
:1020880008030020B4020020B80200200000244009
:1020980000408F4080B5ADF5806D04AF07F57C73C7
:1020A800A3F57B73186007F57C73A3F57C7319603F
:1020B8004FF478430293584B019310230093102355
:1020C800F02214210A2004F0A9F91F230293534B8C
:1020D8000193102300931023F0221421642004F0AC
:1020E8009DF907F57C73A3F57C731B681BB2184632
:1020F800FFF754FF03461A4607F57C73A3F57C7374
:102108001B681A6007F57C73A3F57B731B681BB209
:102118001846FFF771FF03461A4607F57C73A3F5C7
:102128007B731B681A604FF4784302933C4B01930E
:10213800102300931023F0225A210A2004F06EF98C
:102148004FF478430293374B0193102300931023E5
:10215800F02282210A2004F061F907F57C73A3F5C7
:102168007C731B681B68002B14DA07F57C73A3F5D6
:102178007C731B681B68002BB8BF5B421A464FF480
:1021880078430193102300930A2396210A2004F030
:10219800CDF810E007F57C73A3F57C731B681B680A
:1021A8001A464FF478430193102300930A236E21B3
:1021B8000A2004F0BBF807F57C73A3F57B731B6852
:1021C8001B68002B10DB07F57C73A3F57B731B687A
:1021D8001B681A461F230193102300930A23962194
:1021E8005C2004F0A3F812E007F57C73A3F57B7379
:1021F8001B681B68002BB8BF5B421A461F2301935C
:10220800102300930A236E215A2004F08FF800BF90
:1022180007F57C77BD4680BD70DF00087CDF0008CD
:1022280088DF000890DF000880B483B000AF7860D2
:102238007B68204A934238D17B681B681E4A9342C8
:1022480033D11E4B1B785BB2002B2EDA1B4B1B784D
:1022580023F01003DAB2194B1A70184B1B7803F0ED
:102268000F03002B06D1154B1B7843F04003DAB25D
:10227800124B1A70114B1B7803F00F030D2B06DC61
:102288000E4B1B780133DAB20C4B1A700DE00B4B76
:102298001B7803F07F03DAB2084B1A70074B1B78E0
:1022A80023F00F03DAB2054B1A7000BF0C37BD4696
:1022B80080BC70479803002000080040820400207A
:1022C80080B400AF72B600BF00BFFDE780B584B030
:1022D80000AF164B9B69154A43F001039361134BFA
:1022E8009B6903F00103BB60BB68104BDB690F4AB5
:1022F80043F08053D3610D4BDB6903F080537B605F
:102308007B68052004F00AFB094B5B68FB60FB68EF
:1023180023F0E063FB60FB6843F00073FB60044A52
:10232800FB68536000BF1037BD4680BD00100240F7
:102338000000014080B400AF00BFFDE780B400AFEB
:1023480000BFFDE780B400AF00BFFDE780B400AF79
:1023580000BFFDE780B400AF00BFFDE780B400AF69
:1023680000BFBD4680BC704780B400AF00BFBD460B
:1023780080BC704780B400AF00BFBD4680BC7047CA
:1023880080B500AF04F0E2F900BF80BD80B500AFB2
:10239800024805F057FE00BF80BD00BF980300202B
:1023A80080B500AF024805F04DFE00BF80BD00BFFC
:1023B800E003002080B400AF01231846BD4680BC6E
:1023C800704780B582B000AF7860396008F0EAF9EC
:1023D800034616221A604FF0FF3318460837BD46E9
:1023E80080BD80B582B000AF78604FF0FF3178686B
:1023F800FFF7E7FF00BFFDE780B586B000AFF860E4
:10240800B9607A6000237B610AE0AFF3008001467F
:10241800BB685A1CBA60CAB21A707B6901337B6107
:102428007A697B689A42F0DB7B6818461837BD46A4
:1024380080BD80B586B000AFF860B9607A600023CF
:102448007B6109E0BB685A1CBA601B78184600F02B
:10245800CBFB7B6901337B617A697B689A42F1DB4C
:102468007B6818461837BD4680BD80B483B000AF7E
:1024780078604FF0FF3318460C37BD4680BC704774
:1024880080B483B000AF786039603B684FF4005285
:102498005A60002318460C37BD4680BC704780B48C
:1024A80083B000AF7860012318460C37BD4680BC66
:1024B800704780B485B000AFF860B9607A600023D7
:1024C80018461437BD4680BC7047000080B586B0FA
:1024D80000AF7860144A154BD31A7B617B693B6166
:1024E800134B1B68002B02D1114B124A1A60104B78
:1024F8001A687B6813443A699A4207D208F052F97D
:1025080003460C221A604FF0FF3309E0084B1B68A2
:10251800FB60074B1A687B681344054A1360FB6825
:1025280018461837BD4680BD000001200004000091
:10253800BC020020E005002080B400AF00BFBD460B
:1025480080BC704780B596B000AF07F14803002201
:102558001A605A609A60DA6007F1400300221A6034
:102568005A6007F1240300221A605A609A60DA6000
:102578001A615A619A613B1D20220021184608F011
:10258800BEF8484B484A1A60464B47225A60454BAA
:1025980000229A60434B40F2F312DA60414B00226A
:1025A8001A61404B00225A613E4B00229A613D4815
:1025B80005F073F90346002B01D0FFF781FE4FF4B5
:1025C8008053BB6407F148031946364805F0A0FF5D
:1025D8000346002B01D0FFF773FE324805F00CFAD2
:1025E8000346002B01D0FFF76BFE00233B6400235A
:1025F8007B6407F1400319462A4806F0ABFC034602
:10260800002B01D0FFF75CFE60237B62FA23BB62DC
:102618000023FB6200233B6300237B630023BB632F
:102628000023FB6307F12403002219461D4805F027
:10263800ADFE0346002B01D0FFF742FE07F124034D
:102648000C221946174805F0A1FE0346002B01D0BD
:10265800FFF736FE00237B600023BB600023FB608E
:1026680000233B6100237B614FF40053BB610023CF
:102678003B623B1D19460B4806F0D8FC0346002B6D
:1026880001D0FFF71DFE0C21064805F00DFA0021C8
:10269800044805F009FA034800F072FA00BF5837F9
:1026A800BD4680BDC0020020002C014080B58CB022
:1026B80000AF07F10C0324220021184608F01FF888
:1026C8003B1D00221A605A60214B4FF080421A606D
:1026D8001F4B00225A601E4B00229A601C4B4FF67B
:1026E800FF72DA601A4B00221A61194B00229A61B4
:1026F8000323FB6000233B6101237B610023BB6153
:102708000023FB6100233B6201237B620023BB6241
:102718000023FB6207F10C0319460D4805F0F0FB96
:102728000346002B01D0FFF7CBFD00237B6000237D
:10273800BB603B1D1946064806F00CFC0346002BFF
:1027480001D0FFF7BDFD00BF3037BD4680BD00BFDB
:102758000803002080B58CB000AF07F10C032422D9
:102768000021184607F0CBFF3B1D00221A605A6073
:10277800204B214A1A601F4B00225A601D4B002231
:102788009A601C4B4FF6FF72DA601A4B00221A61EE
:10279800184B00229A610323FB6000233B6101234D
:1027A8007B610023BB610023FB6100233B620123A3
:1027B8007B620023BB620023FB6207F10C0319460E
:1027C8000C4805F09DFB0346002B01D0FFF778FD70
:1027D80000237B600023BB603B1D1946054806F0BB
:1027E800B9FB0346002B01D0FFF76AFD00BF303765
:1027F800BD4680BD500300200004004080B58AB06B
:1028080000AF07F1180300221A605A609A60DA6074
:1028180007F1100300221A605A603B4600221A6032
:102828005A609A60DA60314B314A1A602F4B47225E
:102838005A602E4B00229A602C4B42F20F72DA60DB
:102848002A4B00221A61294B00229A61274805F079
:1028580024F80346002B01D0FFF732FD4FF48053D4
:10286800BB6107F118031946204805F051FE0346DD
:10287800002B01D0FFF724FD1C4805F0CFF90346D3
:10288800002B01D0FFF71CFD00233B6100237B6177
:1028980007F110031946154806F05CFB0346002BA8
:1028A80001D0FFF70DFD00233B6001237B6000236F
:1028B800BB600023FB603B460C2219460B4805F021
:1028C800C9FC0346002B01D0FFF7FAFC0C2107488E
:1028D80005F0FCF9054B1B68DA68044B1B6842F0ED
:1028E8000102DA6000BF2837BD4680BD980300208A
:1028F8000008004080B582B000AF3B4600221A6055
:102908005A60154B154A1A60134B00225A60124B35
:1029180000229A60104B4FF6FF72DA600E4B0022CD
:102928009A610D4804F0B9FF0346002B01D0FFF768
:10293800C7FC00233B6000237B603B4619460648E2
:1029480006F008FB0346002B01D0FFF7B9FC00BFD7
:102958000837BD4680BD00BFE003002000100040DE
:1029680080B58AB000AF786007F1180300221A60BA
:102978005A609A60DA607B681B68304A93420CD1CF
:102988002F4B9B692E4A43F4006393612C4B9B6940
:1029980003F400637B617B694BE07B681B68294A11
:1029A80093422DD1264BDB69254A43F00403D361BA
:1029B800234BDB6903F004033B613B69204B9B69B4
:1029C8001F4A43F0080393611D4B9B6903F00803FA
:1029D800FB60FB684FF40073BB610023FB610123BC
:1029E8003B6207F118031946174803F0D9FF002284
:1029F80000211E2003F09DFF1E2003F0B6FF18E003
:102A08007B681B68114A934213D10D4BDB690C4A52
:102A180043F01003D3610A4BDB6903F01003BB607A
:102A2800BB6800220021362003F083FF362003F024
:102A38009CFF00BF2837BD4680BD00BF002C014069
:102A48000010024000080040000C01400010004047
:102A580080B58CB000AF786007F11C0300221A60C3
:102A68005A609A60DA607B681B68B3F1804F4FD177
:102A78003E4BDB693D4A43F00103D3613B4BDB69C5
:102A880003F00103BB61BB69384B9B69374A43F0CC
:102A980004039361354B9B6903F004037B617B69F5
:102AA800324B9B69314A43F0080393612F4B9B6972
:102AB80003F008033B613B694FF40043FB610023CB
:102AC8003B6200237B6207F11C031946284803F088
:102AD80067FF0823FB6100233B6200237B6207F149
:102AE8001C031946234803F05BFF234B5B68FB621A
:102AF800FB6A23F44073FB62FB6A43F0E063FB620A
:102B0800FB6A43F48073FB621B4AFB6A536028E04C
:102B18007B681B68194A934223D1144BDB69134A1B
:102B280043F00203D361114BDB6903F00203FB603E
:102B3800FB680E4B9B690D4A43F0040393610B4BF2
:102B48009B6903F00403BB60BB68C023FB610023DF
:102B58003B6200237B6207F11C031946044803F01B
:102B68001FFF00BF3037BD4680BD00BF00100240C8
:102B780000080140000C0140000001400004004032
:102B880080B588B000AF786007F1100300221A60A2
:102B98005A609A60DA607B681B68104A934218D1C1
:102BA8000F4B9B690E4A43F0040393610C4B9B69DE
:102BB80003F00403FB60FB684FF410633B610223DE
:102BC8007B610223FB6107F110031946054803F0F6
:102BD800E7FE00BF2037BD4680BD00BF002C014086
:102BE800001002400008014080B582B000AF786054
:102BF800391D4FF0FF330122034806F0CAFA7B68FB
:102C080018460837BD4680BD2C04002080B500AFAB
:102C1800134B144A1A60124B4FF4E1325A60104BAE
:102C280000229A600E4B0022DA600D4B00221A61D6
:102C38000B4B0C225A610A4B00229A61084B002266
:102C4800DA61074806F055FA0346002B01D0FFF772
:102C580037FB01220449024806F01EFB00BF80BD75
:102C68002C040020003801402804002080B588B0DA
:102C780000AF786007F1100300221A605A609A606A
:102C8800DA607B681B681C4A934231D11B4B9B69F5
:102C98001A4A43F480439361184B9B6903F48043B9
:102CA800FB60FB68154B9B69144A43F0040393616E
:102CB800124B9B6903F00403BB60BB684FF40073BD
:102CC8003B6102237B610323FB6107F11003194673
:102CD8000B4803F065FE4FF480633B6100237B6182
:102CE8000023BB6107F110031946054803F058FE9D
:102CF80000BF2037BD4680BD0038014000100240AB
:102D080000080140FFF718FC0B480C490C4A002347
:102D180002E0D458C4500433C4188C42F9D3094A89
:102D2800094C002301E013600432A242FBD307F0F0
:102D38003FFDFEF78DFD704700000020DC010020FC
:102D480090130108DC010020E0050020FEE780B5B3
:102D580000AF112002F038FC782006F01BFD362069
:102D680002F032FC002002F01BFC3A2002F02CFC9E
:102D7800052002F015FCB22002F026FC0C2002F01F
:102D88000FFC0C2002F00CFC002002F009FC3320A0
:102D980002F006FC332002F003FCB72002F014FC1A
:102DA800352002F0FDFBBB2002F00EFC322002F0C1
:102DB800F7FBC02002F008FC0C2002F0F1FBC22057
:102DC80002F002FC012002F0EBFBC32002F0FCFB46
:102DD800102002F0E5FBC42002F0F6FB202002F0F0
:102DE800DFFBC62002F0F0FB0F2002F0D9FBD02059
:102DF80002F0EAFBA42002F0D3FBA12002F0D0FBF2
:102E0800E02002F0E1FBD02002F0CAFB002002F033
:102E1800C7FB022002F0C4FB072002F0C1FB0A2016
:102E280002F0BEFB282002F0BBFB322002F0B8FB08
:102E3800442002F0B5FB422002F0B2FB062002F06B
:102E4800AFFB0E2002F0ACFB122002F0A9FB14200D
:102E580002F0A6FB172002F0A3FBE12002F0B4FB6E
:102E6800D02002F09DFB002002F09AFB022002F025
:102E780097FB072002F094FB0A2002F091FB282020
:102E880002F08EFB312002F08BFB542002F088FB0D
:102E9800472002F085FB0E2002F082FB1C2002F086
:102EA8007FFB172002F07CFB1B2002F079FB1E2021
:102EB80002F076FB2A2002F087FB002002F070FB6C
:102EC800002002F06DFB002002F06AFBEF2002F008
:102ED80067FB2B2002F078FB002002F061FB00204A
:102EE80002F05EFB012002F05BFB3F2002F058FB82
:102EF800292002F069FB00BF80BD80B500AFCF205C
:102F080002F062FB002002F04BFBC12002F048FBFC
:102F1800302002F045FBED2002F056FB642002F061
:102F28003FFB032002F03CFB122002F039FB81201A
:102F380002F036FBE82002F047FB852002F030FB68
:102F4800102002F02DFB7A2002F02AFBCB2002F0A1
:102F58003BFB392002F024FB2C2002F021FB00204F
:102F680002F01EFB342002F01BFB022002F018FBCB
:102F7800F72002F029FB202002F012FBEA2002F0E1
:102F880023FB002002F00CFB002002F009FBC0200C
:102F980002F01AFB1B2002F003FBC12002F014FB15
:102FA800012002F0FDFAC52002F00EFB302002F0ED
:102FB800F7FA302002F0F4FAC72002F005FBB72038
:102FC80002F0EEFA362002F0FFFA482002F0E8FAA2
:102FD8003A2002F0F9FA552002F0E2FAB12002F0A4
:102FE800F3FA002002F0DCFA1A2002F0D9FAB6202F
:102FF80002F0EAFA0A2002F0D3FAA22002F0D0FA8C
:10300800F22002F0E1FA002002F0CAFA262002F0CB
:10301800DBFA012002F0C4FAE02002F0D5FA0F2012
:1030280002F0BEFA2A2002F0BBFA282002F0B8FA11
:10303800082002F0B5FA0E2002F0B2FA082002F0D9
:10304800AFFA542002F0ACFAA92002F0A9FA432002
:1030580002F0A6FA0A2002F0A3FA0F2002F0A0FA62
:10306800002002F09DFA002002F09AFA002002F0F7
:1030780097FA002002F094FAE12002F0A5FA002065
:1030880002F08EFA152002F08BFA172002F088FA67
:10309800072002F085FA112002F082FA062002F0D9
:1030A8007FFA2B2002F07CFA562002F079FA3C20B5
:1030B80002F076FA052002F073FA102002F070FA96
:1030C8000F2002F06DFA3F2002F06AFA3F2002F06A
:1030D80067FA0F2002F064FA2B2002F075FA00203C
:1030E80002F05EFA002002F05BFA012002F058FAC2
:1030F8003F2002F055FA2A2002F066FA002002F07A
:103108004FFA002002F04CFA002002F049FAEF20B2
:1031180002F046FA112002F057FA782006F03AFB3E
:10312800292002F051FA00BF80BD80B500AFED2024
:1031380002F04AFA012002F033FAFE2002F030FAD7
:10314800EE2002F041FADE2002F02AFA212002F0F5
:1031580027FAF12002F038FA012002F021FADF20E4
:1031680002F032FA102002F01BFAC42002F02CFA06
:103178008F2002F015FAC62002F026FA002002F08D
:103188000FFAE22002F00CFAE22002F009FAE2203B
:1031980002F006FABF2002F017FAAA2002F000FA9D
:1031A800B02002F011FA0D2002F0FAF9002002F026
:1031B800F7F90D2002F0F4F9002002F0F1F91120DE
:1031C80002F0EEF9002002F0EBF9192002F0E8F91C
:1031D800002002F0E5F9212002F0E2F9002002F0D7
:1031E800DFF92D2002F0DCF9002002F0D9F93D20AA
:1031F80002F0D6F9002002F0D3F95D2002F0D0F9F0
:10320800002002F0CDF95D2002F0CAF9002002F09A
:10321800C7F9B12002F0D8F9802002F0C1F90020E6
:1032280002F0BEF98B2002F0BBF9002002F0B8F9D9
:10323800962002F0B5F9002002F0B2F9B22002F0AF
:10324800C3F9002002F0ACF9002002F0A9F902202D
:1032580002F0A6F9002002F0A3F9032002F0A0F979
:10326800002002F09DF9B32002F0AEF9002002F030
:1032780097F9002002F094F9002002F091F900205B
:1032880002F08EF9002002F08BF9002002F088F994
:10329800002002F085F9002002F082F9002002F0F7
:1032A8007FF9002002F07CF9002002F079F9002073
:1032B80002F076F9002002F073F9002002F070F9AC
:1032C800002002F06DF9002002F06AF9002002F0F7
:1032D80067F9002002F064F9002002F061F900208B
:1032E80002F05EF9002002F05BF9002002F058F9C4
:1032F800002002F055F9002002F052F9B42002F043
:1033080063F98B2002F04CF9002002F049F996206D
:1033180002F046F9002002F043F9A12002F040F93A
:10332800002002F03DF9B52002F04EF9022002F02B
:1033380037F9002002F034F9032002F031F90020B7
:1033480002F02EF9042002F02BF9002002F028F9EF
:10335800B62002F039F9002002F022F9002002F02C
:103368001FF9B72002F030F9002002F019F9002007
:1033780002F016F93F2002F013F9002002F010F9CC
:103388005E2002F00DF9002002F00AF9642002F034
:1033980007F9002002F004F98C2002F001F900205E
:1033A80002F0FEF8AC2002F0FBF8002002F0F8F87A
:1033B800DC2002F0F5F8002002F0F2F8702002F0AC
:1033C800EFF8002002F0ECF8902002F0E9F8002075
:1033D80002F0E6F8EB2002F0E3F8002002F0E0F853
:1033E800DC2002F0DDF8002002F0DAF8B82002F064
:1033F800EBF8002002F0D4F8002002F0D1F8002009
:1034080002F0CEF8002002F0CBF8002002F0C8F855
:10341800002002F0C5F8002002F0C2F8002002F0F7
:10342800BFF8BA2002F0D0F8242002F0B9F8002042
:1034380002F0B6F8002002F0B3F8002002F0B0F86D
:10344800C12002F0C1F8202002F0AAF8002002F002
:10345800A7F8542002F0A4F8002002F0A1F8FF20F9
:1034680002F09EF8002002F09BF8C22002F0ACF8AF
:103478000A2002F095F8002002F092F8042002F0E9
:103488008FF8002002F08CF8C32002F09DF83C2051
:1034980002F086F8002002F083F83A2002F080F863
:1034A800002002F07DF8392002F07AF8002002F0BE
:1034B80077F8372002F074F8002002F071F83C2009
:1034C80002F06EF8002002F06BF8362002F068F87F
:1034D800002002F065F8322002F062F8002002F0C5
:1034E8005FF82F2002F05CF8002002F059F82C2039
:1034F80002F056F8002002F053F8292002F050F8A4
:10350800002002F04DF8262002F04AF8002002F0D0
:1035180047F8242002F044F8002002F041F8242063
:1035280002F03EF8002002F03BF8232002F038F8C1
:10353800002002F035F83C2002F032F8002002F0BA
:103548002FF8362002F02CF8002002F029F832205B
:1035580002F026F8002002F023F82F2002F020F8CD
:10356800002002F01DF82C2002F01AF8002002F0CA
:1035780017F8292002F014F8002002F011F826208C
:1035880002F00EF8002002F00BF8242002F008F8F0
:10359800002002F005F8242002F002F8002001F0D3
:1035A800FFFF232001F0FCFF002001F0F9FFC420F9
:1035B80002F00AF8622001F0F3FF002001F0F0FFAA
:1035C800052001F0EDFF002001F0EAFF842001F062
:1035D800E7FF002001F0E4FFF02001F0E1FF002008
:1035E80001F0DEFF182001F0DBFF002001F0D8FF1A
:1035F800A42001F0D5FF002001F0D2FF182001F02F
:10360800CFFF002001F0CCFF502001F0C9FF0020BF
:1036180001F0C6FF0C2001F0C3FF002001F0C0FF3D
:10362800172001F0BDFF002001F0BAFF952001F03E
:10363800B7FF002001F0B4FFF32001F0B1FF002034
:1036480001F0AEFFE62001F0ABFF002001F0A8FF7B
:10365800C52001F0B9FF322001F0A2FF002001F0DF
:103668009FFF442001F09CFF002001F099FF652096
:1036780001F096FF002001F093FF762001F090FF03
:10368800002001F08DFF882001F08AFF002001F062
:1036980087FFC62001F098FF202001F081FF00205D
:1036A80001F07EFF172001F07BFF002001F078FF7A
:1036B800012001F075FF002001F072FFC72001F022
:1036C80083FF002001F06CFF002001F069FF00205B
:1036D80001F066FF002001F063FFC82001F074FFCD
:1036E800002001F05DFF002001F05AFF002001F0EA
:1036F80057FF002001F054FFC92001F065FF0020AA
:1037080001F04EFF002001F04BFF002001F048FFC0
:10371800002001F045FF002001F042FF002001F0E9
:103728003FFF002001F03CFF002001F039FF00209E
:1037380001F036FF002001F033FF002001F030FFD8
:10374800002001F02DFF002001F02AFF002001F0E9
:1037580027FF002001F024FF002001F021FFE020D6
:1037680001F032FF162001F01BFF002001F018FFC6
:103778001C2001F015FF002001F012FF212001F0AC
:103788000FFF002001F00CFF362001F009FF002098
:1037980001F006FF462001F003FF002001F000FFC2
:1037A800522001F0FDFE002001F0FAFE642001F035
:1037B800F7FE002001F0F4FE7A2001F0F1FE00206F
:1037C80001F0EEFE8B2001F0EBFE002001F0E8FE98
:1037D800992001F0E5FE002001F0E2FEA82001F0AA
:1037E800DFFE002001F0DCFEB92001F0D9FE002048
:1037F80001F0D6FEC42001F0D3FE002001F0D0FE77
:10380800CA2001F0CDFE002001F0CAFED22001F04E
:10381800C7FE002001F0C4FED92001F0C1FE00203F
:1038280001F0BEFEE02001F0BBFE002001F0B8FE72
:10383800F32001F0B5FE002001F0B2FEE12001F016
:10384800C3FE162001F0ACFE002001F0A9FE1C20EA
:1038580001F0A6FE002001F0A3FE222001F0A0FE48
:10386800002001F09DFE362001F09AFE002001F0B4
:1038780097FE452001F094FE002001F091FE5220B1
:1038880001F08EFE002001F08BFE642001F088FE1E
:10389800002001F085FE7A2001F082FE002001F070
:1038A8007FFE8B2001F07CFE002001F079FE99203C
:1038B80001F076FE002001F073FEA82001F070FEF2
:1038C800002001F06DFEB92001F06AFE002001F031
:1038D80067FEC42001F064FE002001F061FECA20EA
:1038E80001F05EFE002001F05BFED22001F058FEE0
:1038F800002001F055FED82001F052FE002001F012
:103908004FFEE02001F04CFE002001F049FEF320BC
:1039180001F046FE002001F043FEE22001F054FED3
:10392800052001F03DFE002001F03AFE0B2001F0D9
:1039380037FE002001F034FE1B2001F031FE00208C
:1039480001F02EFE342001F02BFE002001F028FEAD
:10395800442001F025FE002001F022FE4F2001F056
:103968001FFE002001F01CFE612001F019FE00205E
:1039780001F016FE792001F013FE002001F010FE80
:10398800882001F00DFE002001F00AFE972001F0CA
:1039980007FE002001F004FEA62001F001FE002031
:1039A80001F0FEFDB72001F0FBFD002001F0F8FD5D
:1039B800C22001F0F5FD002001F0F2FDC72001F062
:1039C800EFFD002001F0ECFDD12001F0E9FD002021
:1039D80001F0E6FDD62001F0E3FD002001F0E0FD56
:1039E800DD2001F0DDFD002001F0DAFDF32001F01B
:1039F800D7FD002001F0D4FDE32001F0E5FD05200E
:103A080001F0CEFD002001F0CBFD0A2001F0C8FD39
:103A1800002001F0C5FD1C2001F0C2FD002001F0CE
:103A2800BFFD332001F0BCFD002001F0B9FD4420AA
:103A380001F0B6FD002001F0B3FD502001F0B0FD0B
:103A4800002001F0ADFD622001F0AAFD002001F088
:103A5800A7FD782001F0A4FD002001F0A1FD882039
:103A680001F09EFD002001F09BFD972001F098FDDC
:103A7800002001F095FDA62001F092FD002001F044
:103A88008FFDB72001F08CFD002001F089FDC220D8
:103A980001F086FD002001F083FDC72001F080FDC4
:103AA800002001F07DFDD12001F07AFD002001F019
:103AB80077FDD52001F074FD002001F071FDDD20B7
:103AC80001F06EFD002001F06BFDF32001F068FDB0
:103AD800002001F065FDE42001F076FD012001F0F1
:103AE8005FFD002001F05CFD012001F059FD002080
:103AF80001F056FD022001F053FD002001F050FDB9
:103B08002A2001F04DFD002001F04AFD3C2001F083
:103B180047FD002001F044FD4B2001F041FD00204D
:103B280001F03EFD5D2001F03BFD002001F038FD75
:103B3800742001F035FD002001F032FD842001F0F1
:103B48002FFD002001F02CFD932001F029FD00201D
:103B580001F026FDA22001F023FD002001F020FD48
:103B6800B32001F01DFD002001F01AFDBE2001F078
:103B780017FD002001F014FDC42001F011FD002004
:103B880001F00EFDCD2001F00BFD002001F008FD35
:103B9800D32001F005FD002001F002FDDD2001F039
:103BA800FFFC002001F0FCFCF32001F0F9FC0020F0
:103BB80001F0F6FCE52001F007FD002001F0F0FC23
:103BC800002001F0EDFC002001F0EAFC002001F0EB
:103BD800E7FC022001F0E4FC002001F0E1FC2920D0
:103BE80001F0DEFC002001F0DBFC3C2001F0D8FCF9
:103BF800002001F0D5FC4B2001F0D2FC002001F0A0
:103C0800CFFC5D2001F0CCFC002001F0C9FC742041
:103C180001F0C6FC002001F0C3FC842001F0C0FCC8
:103C2800002001F0BDFC932001F0BAFC002001F057
:103C3800B7FCA22001F0B4FC002001F0B1FCB320D5
:103C480001F0AEFC002001F0ABFCBE2001F0A8FCA6
:103C5800002001F0A5FCC42001F0A2FC002001F026
:103C68009FFCCD2001F09CFC002001F099FCD320A2
:103C780001F096FC002001F093FCDC2001F090FCA0
:103C8800002001F08DFCF32001F08AFC002001F0F7
:103C980087FCE62001F098FC112001F081FC00204F
:103CA80001F07EFC342001F07BFC002001F078FC60
:103CB800562001F075FC002001F072FC762001F01E
:103CC8006FFC002001F06CFC772001F069FC0020FB
:103CD80001F066FC662001F063FC002001F060FC46
:103CE800882001F05DFC002001F05AFC992001F0C9
:103CF80057FC002001F054FCBB2001F051FC0020CF
:103D080001F04EFC992001F04BFC002001F048FC2A
:103D1800662001F045FC002001F042FC552001F02E
:103D28003FFC002001F03CFC552001F039FC00204C
:103D380001F036FC452001F033FC002001F030FC96
:103D4800432001F02DFC002001F02AFC442001F062
:103D580027FC002001F024FCE72001F035FC32208C
:103D680001F01EFC002001F01BFC552001F018FC9E
:103D7800002001F015FC762001F012FC002001F073
:103D88000FFC662001F00CFC002001F009FC672004
:103D980001F006FC002001F003FC672001F000FCA4
:103DA800002001F0FDFB872001F0FAFB002001F064
:103DB800F7FB992001F0F4FB002001F0F1FBBB2098
:103DC80001F0EEFB002001F0EBFB992001F0E8FB8D
:103DD800002001F0E5FB772001F0E2FB002001F074
:103DE800DFFB442001F0DCFB002001F0D9FB56206A
:103DF80001F0D6FB002001F0D3FB232001F0D0FB1B
:103E0800002001F0CDFB332001F0CAFB002001F0B7
:103E1800C7FB452001F0C4FB002001F0C1FBE820EE
:103E280001F0D2FB002001F0BBFB002001F0B8FB41
:103E3800992001F0B5FB002001F0B2FB872001F0CA
:103E4800AFFB002001F0ACFB882001F0A9FB0020AB
:103E580001F0A6FB772001F0A3FB002001F0A0FBF6
:103E6800662001F09DFB002001F09AFB882001F0FC
:103E780097FB002001F094FBAA2001F091FB0020A1
:103E880001F08EFBBB2001F08BFB002001F088FBCA
:103E9800992001F085FB002001F082FB662001F0EB
:103EA8007FFB002001F07CFB552001F079FB00200E
:103EB80001F076FB552001F073FB002001F070FB48
:103EC800442001F06DFB002001F06AFB442001F062
:103ED80067FB002001F064FB552001F061FB002026
:103EE80001F05EFBE92001F06FFBAA2001F058FB0E
:103EF800002001F055FB002001F052FB002001F0EA
:103F08004FFB002001F060FBAA2001F049FBCF2005
:103F180001F05AFB002001F043FB002001F040FBB8
:103F2800002001F03DFB002001F03AFB002001F0E9
:103F380037FB002001F034FB002001F031FB0020AA
:103F480001F02EFB002001F02BFB002001F028FBE4
:103F5800002001F025FB002001F022FB002001F0E9
:103F68001FFB002001F01CFB002001F019FB0020C2
:103F780001F016FB002001F013FBF02001F024FBF8
:103F8800002001F00DFB502001F00AFB002001F099
:103F980007FB002001F004FB002001F001FBF320E7
:103FA80001F012FB002001F0FBFAF92001F00CFBF4
:103FB800062001F0F5FA102001F0F2FA292001F0AC
:103FC800EFFA002001F0ECFA3A2001F0FDFA552052
:103FD80001F0E6FA112001F0F7FA642005F0DAFBA7
:103FE800292001F0F1FA352001F0EEFA002001F065
:103FF800D7FA512001F0E8FAFF2001F0D1FA532056
:1040080001F0E2FA2C2001F0CBFA552001F0DCFA9D
:10401800822001F0C5FA2C2001F0D6FA00BF80BD3D
:1040280080B500AF112001F0CFFA782005F0B2FB7F
:10403800362001F0C9FA482001F0B2FA3A2001F01E
:10404800C3FA552001F0ACFAF02001F0BDFAC32004
:1040580001F0A6FAF02001F0B7FA962001F0A0FAD4
:10406800B42001F0B1FA012001F09AFAB62001F06B
:10407800ABFA0A2001F094FAA22001F091FAB720D5
:1040880001F0A2FAC62001F08BFAB92001F09CFADF
:10409800022001F085FAE02001F082FAC02001F048
:1040A80093FA802001F07CFA162001F079FAC120F9
:1040B80001F08AFA192001F073FAC22001F084FA9B
:1040C800A72001F06DFAC52001F07EFA162001F054
:1040D80067FAE82001F078FA402001F061FA8A20B6
:1040E80001F05EFA002001F05BFA002001F058FAB6
:1040F800292001F055FA192001F052FAA52001F003
:104108004FFA332001F04CFAE02001F05DFAF0207C
:1041180001F046FA072001F043FA0D2001F040FAB9
:10412800042001F03DFA052001F03AFA142001F0CC
:1041380037FA362001F034FA542001F031FA4C20D5
:1041480001F02EFA382001F02BFA132001F028FA9A
:10415800142001F025FA2E2001F022FA342001F073
:104168001FFAE12001F030FAF02001F019FA1020CE
:1041780001F016FA142001F013FA0E2001F010FADB
:104188000C2001F00DFA082001F00AFA352001F0A0
:1041980007FA442001F004FA4C2001F001FA262025
:1041A80001F0FEF9102001F0FBF9122001F0F8F9F6
:1041B8002C2001F0F5F9322001F0F2F9F02001F09D
:1041C80003FA3C2001F0ECF9F02001F0FDF9692038
:1041D80001F0E6F9782005F0DDFA212001F0F4F984
:1041E800292001F0F1F900BF80BD80B500AF55214D
:1041F8004FF4704001F0FCF9AA214FF2010001F0E0
:10420800F7F952214FF2020001F0F2F908214FF2BA
:10421800030001F0EDF901214FF2040001F0E8F983
:104228000D214FF4304001F0E3F90D214BF201006C
:1042380001F0DEF90D214BF2020001F0D9F9342129
:104248004FF4364001F0D4F934214BF2016001F00B
:10425800CFF934214BF2026001F0CAF90D214FF475
:10426800314001F0C5F90D214BF2011001F0C0F900
:104278000D214BF2021001F0BBF934214FF4374005
:1042880001F0B6F934214BF2017001F0B1F9342193
:104298004BF2027001F0ACF900214FF4324001F00A
:1042A800A7F900214BF2012001F0A2F900214BF2FD
:1042B800022001F09DF924214FF4384001F098F9CB
:1042C80024214BF6010001F093F924214BF602005A
:1042D80001F08EF901214FF43F4001F089F90F21D7
:1042E8004FF4334001F084F90F214BF2013001F013
:1042F8007FF90F214BF2023001F07AF934214FF4A3
:10430800394001F075F934214BF6011001F070F9CC
:1043180034214BF6021001F06BF908214FF43540B7
:1043280001F066F908214BF2015001F061F908210A
:104338004BF2025001F05CF903214FF4424001F0C6
:1043480057F924214FF43A4001F052F924214BF651
:10435800012001F04DF924214BF6022001F048F923
:1043680000214FF43C4001F043F978214BF601401D
:1043780001F03EF900214BF6024001F039F9002125
:104388004FF43D4001F034F978214BF6015001F02B
:104398002FF900214BF6025001F02AF900214FF4C1
:1043A8003E4001F025F964214BF6016001F020F947
:1043B80000214FF4514001F01BF933214DF2011057
:1043C80001F016F900214DF2021001F011F9342123
:1043D8004DF2031001F00CF900214DF2041001F028
:1043E80007F93A214DF2051001F002F900214DF2CA
:1043F800061001F0FDF84A214DF2071001F0F8F817
:1044080000214DF2081001F0F3F85C214DF209107B
:1044180001F0EEF800214DF20A1001F0E9F88121CF
:104428004DF20B1001F0E4F800214DF20C1001F0F0
:10443800DFF8A6214DF20D1001F0DAF800214DF257
:104448000E1001F0D5F8E5214DF20F1001F0D0F86B
:1044580001214DF2101001F0CBF813214DF211108B
:1044680001F0C6F801214DF2121001F0C1F85421F3
:104478004DF2131001F0BCF801214DF2141001F0B7
:10448800B7F882214DF2151001F0B2F801214DF272
:10449800161001F0ADF8CA214DF2171001F0A8F876
:1044A80002214DF2181001F0A3F800214DF2191065
:1044B80001F09EF802214DF21A1001F099F801213D
:1044C8004DF21B1001F094F802214DF21C1001F07E
:1044D8008FF834214DF21D1001F08AF802214DF2B7
:1044E8001E1001F085F867214DF21F1001F080F8C9
:1044F80002214DF2201001F07BF884214DF22110A9
:1045080001F076F802214DF2221001F071F8A42191
:104518004DF2231001F06CF802214DF2241001F045
:1045280067F8B7214DF2251001F062F802214DF22B
:10453800261001F05DF8CF214DF2271001F058F850
:1045480002214DF2281001F053F8DE214DF2291016
:1045580001F04EF802214DF22A1001F049F8F2213B
:104568004DF22B1001F044F802214DF22C1001F00D
:104578003FF8FE214DF22D1001F03AF803214DF2DB
:104588002E1001F035F810214DF22F1001F030F8FF
:1045980003214DF2301001F02BF833214DF2311088
:1045A80001F026F803214DF2321001F021F86D21B7
:1045B8004DF2331001F01CF800214FF4524001F085
:1045C80017F833214DF2012001F012F800214DF2C5
:1045D800022001F00DF834214DF2032001F008F813
:1045E80000214DF2042001F003F83A214DF2052094
:1045F80000F0FEFF00214DF2062000F0F9FF4A21ED
:104608004DF2072000F0F4FF00214DF2082000F0E1
:10461800EFFF5C214DF2092000F0EAFF00214DF286
:104628000A2000F0E5FF81214DF20B2000F0E0FFA9
:1046380000214DF20C2000F0DBFFA6214DF20D20E9
:1046480000F0D6FF00214DF20E2000F0D1FFE52149
:104658004DF20F2000F0CCFF01214DF2102000F0A8
:10466800C7FF13214DF2112000F0C2FF01214DF2C6
:10467800122000F0BDFF54214DF2132000F0B8FFC6
:1046880001214DF2142000F0B3FF82214DF21520D4
:1046980000F0AEFF01214DF2162000F0A9FFCA215B
:1046A8004DF2172000F0A4FF02214DF2182000F06F
:1046B8009FFF00214DF2192000F09AFF02214DF2D0
:1046C8001A2000F095FF01214DF21B2000F090FF09
:1046D80002214DF21C2000F08BFF34214DF21D20E9
:1046E80000F086FF02214DF21E2000F081FF6721B5
:1046F8004DF21F2000F07CFF02214DF2202000F037
:1047080077FF84214DF2212000F072FF02214DF243
:10471800222000F06DFFA4214DF2232000F068FF55
:1047280002214DF2242000F063FFB7214DF225202D
:1047380000F05EFF02214DF2262000F059FFCF2144
:104748004DF2272000F054FF02214DF2282000F0FE
:104758004FFFDE214DF2292000F04AFF02214DF2E1
:104768002A2000F045FFF2214DF22B2000F040FFF7
:1047780002214DF22C2000F03BFFFE214DF22D20AE
:1047880000F036FF03214DF22E2000F031FF1021FA
:104798004DF22F2000F02CFF03214DF2302000F0C5
:1047A80027FF33214DF2312000F022FF03214DF283
:1047B800322000F01DFF6D214DF2332000F018FF6C
:1047C80000214FF4534000F013FF33214DF2013024
:1047D80000F00EFF00214DF2023000F009FF3421F5
:1047E8004DF2033000F004FF00214DF2043000F0D8
:1047F800FFFE3A214DF2053000F0FAFE00214DF29D
:10480800063000F0F5FE4A214DF2073000F0F0FEC8
:1048180000214DF2083000F0EBFE5C214DF209302A
:1048280000F0E6FE00214DF20A3000F0E1FE8121A1
:104838004DF20B3000F0DCFE00214DF20C3000F0A0
:10484800D7FEA6214DF20D3000F0D2FE00214DF228
:104858000E3000F0CDFEE5214DF20F3000F0C8FE1D
:1048680001214DF2103000F0C3FE13214DF211303A
:1048780000F0BEFE01214DF2123000F0B9FE5421C5
:104888004DF2133000F0B4FE01214DF2143000F067
:10489800AFFE82214DF2153000F0AAFE01214DF243
:1048A800163000F0A5FECA214DF2173000F0A0FE28
:1048B80002214DF2183000F09BFE00214DF2193014
:1048C80000F096FE02214DF21A3000F091FE01210F
:1048D8004DF21B3000F08CFE02214DF21C3000F02E
:1048E80087FE34214DF21D3000F082FE02214DF288
:1048F8001E3000F07DFE67214DF21F3000F078FE7B
:1049080002214DF2203000F073FE84214DF2213057
:1049180000F06EFE02214DF2223000F069FEA42163
:104928004DF2233000F064FE02214DF2243000F0F5
:104938005FFEB7214DF2253000F05AFE02214DF2FC
:10494800263000F055FECF214DF2273000F050FE02
:1049580002214DF2283000F04BFEDE214DF22930C5
:1049680000F046FE02214DF22A3000F041FEF2210D
:104978004DF22B3000F03CFE02214DF22C3000F0BD
:1049880037FEFE214DF22D3000F032FE03214DF2AC
:104998002E3000F02DFE10214DF22F3000F028FEB1
:1049A80003214DF2303000F023FE33214DF2313037
:1049B80000F01EFE03214DF2323000F019FE6D2189
:1049C8004DF2333000F014FE00214FF4544000F053
:1049D8000FFE33214DF2014000F00AFE00214DF296
:1049E800024000F005FE34214DF2034000F000FEC5
:1049F80000214DF2044000F0FBFD3A214DF2054044
:104A080000F0F6FD00214DF2064000F0F1FD4A21CC
:104A18004DF2074000F0ECFD00214DF2084000F097
:104A2800E7FD5C214DF2094000F0E2FD00214DF266
:104A38000A4000F0DDFD81214DF20B4000F0D8FD69
:104A480000214DF20C4000F0D3FDA6214DF20D409F
:104A580000F0CEFD00214DF20E4000F0C9FDE52129
:104A68004DF20F4000F0C4FD01214DF2104000F05E
:104A7800BFFD13214DF2114000F0BAFD01214DF2A6
:104A8800124000F0B5FD54214DF2134000F0B0FD86
:104A980001214DF2144000F0ABFD82214DF215408A
:104AA80000F0A6FD01214DF2164000F0A1FDCA213B
:104AB8004DF2174000F09CFD02214DF2184000F025
:104AC80097FD00214DF2194000F092FD02214DF2B0
:104AD8001A4000F08DFD01214DF21B4000F088FDC9
:104AE80002214DF21C4000F083FD34214DF21D409F
:104AF80000F07EFD02214DF21E4000F079FD672195
:104B08004DF21F4000F074FD02214DF2204000F0EC
:104B18006FFD84214DF2214000F06AFD02214DF223
:104B2800224000F065FDA4214DF2234000F060FD15
:104B380002214DF2244000F05BFDB7214DF22540E3
:104B480000F056FD02214DF2264000F051FDCF2124
:104B58004DF2274000F04CFD02214DF2284000F0B4
:104B680047FDDE214DF2294000F042FD02214DF2C1
:104B78002A4000F03DFDF2214DF22B4000F038FDB7
:104B880002214DF22C4000F033FDFE214DF22D4064
:104B980000F02EFD03214DF22E4000F029FD1021DA
:104BA8004DF22F4000F024FD03214DF2304000F07B
:104BB8001FFD33214DF2314000F01AFD03214DF263
:104BC800324000F015FD6D214DF2334000F010FD2C
:104BD80000214FF4554000F00BFD33214DF20150F8
:104BE80000F006FD00214DF2025000F001FD3421D5
:104BF8004DF2035000F0FCFC00214DF2045000F08F
:104C0800F7FC3A214DF2055000F0F2FC00214DF27C
:104C1800065000F0EDFC4A214DF2075000F0E8FC88
:104C280000214DF2085000F0E3FC5C214DF20950E0
:104C380000F0DEFC00214DF20A5000F0D9FC812181
:104C48004DF20B5000F0D4FC00214DF20C5000F056
:104C5800CFFCA6214DF20D5000F0CAFC00214DF208
:104C68000E5000F0C5FCE5214DF20F5000F0C0FCDD
:104C780001214DF2105000F0BBFC13214DF21150F0
:104C880000F0B6FC01214DF2125000F0B1FC5421A5
:104C98004DF2135000F0ACFC01214DF2145000F01D
:104CA800A7FC82214DF2155000F0A2FC01214DF223
:104CB800165000F09DFCCA214DF2175000F098FCE8
:104CC80002214DF2185000F093FC00214DF21950CA
:104CD80000F08EFC02214DF21A5000F089FC0121EF
:104CE8004DF21B5000F084FC02214DF21C5000F0E4
:104CF8007FFC34214DF21D5000F07AFC02214DF268
:104D08001E5000F075FC67214DF21F5000F070FC3A
:104D180002214DF2205000F06BFC84214DF221500D
:104D280000F066FC02214DF2225000F061FCA42143
:104D38004DF2235000F05CFC02214DF2245000F0AB
:104D480057FCB7214DF2255000F052FC02214DF2DC
:104D5800265000F04DFCCF214DF2275000F048FCC2
:104D680002214DF2285000F043FCDE214DF229507B
:104D780000F03EFC02214DF22A5000F039FCF221ED
:104D88004DF22B5000F034FC02214DF22C5000F073
:104D98002FFCFE214DF22D5000F02AFC03214DF28C
:104DA8002E5000F025FC10214DF22F5000F020FC71
:104DB80003214DF2305000F01BFC33214DF23150ED
:104DC80000F016FC03214DF2325000F011FC6D2169
:104DD8004DF2335000F00CFC00214FF4564000F027
:104DE80007FC33214DF2016000F002FC00214DF276
:104DF800026000F0FDFB34214DF2036000F0F8FB87
:104E080000214DF2046000F0F3FB3A214DF20560F9
:104E180000F0EEFB00214DF2066000F0E9FB4A21AC
:104E28004DF2076000F0E4FB00214DF2086000F04D
:104E3800DFFB5C214DF2096000F0DAFB00214DF246
:104E48000A6000F0D5FB81214DF20B6000F0D0FB29
:104E580000214DF20C6000F0CBFBA6214DF20D6055
:104E680000F0C6FB00214DF20E6000F0C1FBE52109
:104E78004DF20F6000F0BCFB01214DF2106000F014
:104E8800B7FB13214DF2116000F0B2FB01214DF286
:104E9800126000F0ADFB54214DF2136000F0A8FB46
:104EA80001214DF2146000F0A3FB82214DF2156040
:104EB80000F09EFB01214DF2166000F099FBCA211B
:104EC8004DF2176000F094FB02214DF2186000F0DB
:104ED8008FFB00214DF2196000F08AFB02214DF290
:104EE8001A6000F085FB01214DF21B6000F080FB89
:104EF80002214DF21C6000F07BFB34214DF21D6055
:104F080000F076FB02214DF21E6000F071FB672174
:104F18004DF21F6000F06CFB02214DF2206000F0A2
:104F280067FB84214DF2216000F062FB02214DF203
:104F3800226000F05DFBA4214DF2236000F058FBD5
:104F480002214DF2246000F053FBB7214DF2256099
:104F580000F04EFB02214DF2266000F049FBCF2104
:104F68004DF2276000F044FB02214DF2286000F06A
:104F78003FFBDE214DF2296000F03AFB02214DF2A1
:104F88002A6000F035FBF2214DF22B6000F030FB77
:104F980002214DF22C6000F02BFBFE214DF22D601A
:104FA80000F026FB03214DF22E6000F021FB1021BA
:104FB8004DF22F6000F01CFB03214DF2306000F031
:104FC80017FB33214DF2316000F012FB03214DF243
:104FD800326000F00DFB6D214DF2336000F008FBEC
:104FE80055214FF4704000F003FBAA214FF2010055
:104FF80000F0FEFA52214FF2020000F0F9FA0821FF
:105008004FF2030000F0F4FA00214FF2040000F020
:10501800EFFACC214FF4314000F0EAFA00214BF2CC
:10502800011000F0E5FA05214FF4364000F0E0FAEF
:1050380070214FF4374000F0DBFA70214BF2017019
:1050480000F0D6FA01214FF4384000F0D1FA0321DC
:105058004BF6010000F0CCFA03214BF6020000F0F9
:10506800C7FA03214BF6030000F0C2FA02214FF4FD
:105078003C4000F0BDFA00214BF6014000F0B8FAC0
:1050880000214BF6024000F0B3FAD0214FF449401A
:1050980000F0AEFA02214CF6011000F0A9FA5021F6
:1050A8004CF6021000F0A4FA50214CF6031000F060
:1050B8009FFA50214CF6041000F09AFA00214FF4A0
:1050C800545000F095FA55214FF4685000F090FACA
:1050D8004FF4885000F078FA782004F01DFB4FF464
:1050E800245000F071FA00BF80BD80B500AFFF20EA
:1050F80000F06AFAFF2000F053FA982000F050FA06
:10510800062000F04DFABC2000F05EFA012000F005
:1051180047FA0F2000F044FA612000F041FAFF201E
:1051280000F03EFA012000F03BFA012000F038FAC6
:105138000B2000F035FA102000F032FA372000F08A
:105148002FFA632000F02CFAFF2000F029FAFF2044
:1051580000F026FA012000F023FA012000F020FADE
:10516800002000F01DFA002000F01AFAFF2000F0DD
:1051780017FA522000F014FA012000F011FA00206A
:1051880000F00EFA402000F00BFABD2000F01CFAE7
:10519800012000F005FA232000F002FA452000F073
:1051A800FFF9672000F0FCF9012000F0F9F923204D
:1051B80000F0F6F9452000F0F3F9672000F0F0F967
:1051C800BE2000F001FA002000F0EAF9012000F00A
:1051D800E7F9AB2000F0E4F9602000F0E1F92220C3
:1051E80000F0DEF9222000F0DBF9222000F0D8F9E7
:1051F800222000F0D5F9222000F0D2F9C72000F0D3
:10520800E3F9362000F0CCF9ED2000F0DDF97F203D
:1052180000F0C6F90F2000F0C3F9C02000F0D4F95F
:105228000F2000F0BDF90B2000F0BAF90A2000F0B9
:10523800B7F9FC2000F0C8F9082000F0B1F9DF2028
:1052480000F0C2F9002000F0ABF9002000F0A8F946
:10525800002000F0A5F9002000F0A2F9002000F0DD
:105268009FF9202000F09CF9F32000F0ADF974209C
:1052780000F096F9B42000F0A7F9002000F090F9AA
:10528800002000F08DF9002000F08AF9F72000F0E6
:105298009BF9822000F084F9B12000F095F90020F4
:1052A80000F07EF9132000F07BF9132000F078F964
:1052B800F22000F089F9802000F072F9042000F053
:1052C8006FF9402000F06CF9282000F069F9C1203E
:1052D80000F07AF9172000F063F9882000F060F9EF
:1052E800882000F05DF9202000F05AF9E02000F055
:1052F8006BF9002000F054F90A2000F051F912204F
:1053080000F04EF9102000F04BF90E2000F048F99B
:10531800202000F045F9CC2000F042F9072000F0E9
:105328003FF9062000F03CF90B2000F039F90E2077
:1053380000F036F90F2000F033F90D2000F030F9B5
:10534800152000F02DF9102000F02AF9002000F0B7
:1053580027F9E12000F038F9002000F021F90B20AE
:1053680000F01EF9132000F01BF90D2000F018F9C9
:105378000E2000F015F91B2000F012F9712000F042
:105388000FF9062000F00CF9062000F009F90A20B0
:1053980000F006F90F2000F003F90E2000F000F9E4
:1053A8000F2000F0FDF8152000F0FAF80C2000F0AE
:1053B800F7F8002000F0F4F82A2000F005F90020A2
:1053C80000F0EEF8002000F0EBF8012000F0E8F81B
:1053D800DF2000F0E5F82B2000F0F6F8002000F0C0
:1053E800DFF8002000F0DCF8032000F0D9F81F20D7
:1053F80000F0D6F83A2000F0E7F8552000F0D0F891
:10540800362000F0E1F8002000F0CAF8112000F082
:10541800DBF8782004F0BEF9292000F0D5F8142034
:1054280004F0B8F92C2000F0CFF800BF80BD80B59B
:1054380000AFE22000F0C8F81D2000F0B1F802200B
:1054480000F0AEF8042000F0ABF8642004F064F932
:10545800E02000F0B9F8012000F0A2F80A2004F0DA
:1054680099F9E02000F0B0F8032000F099F80C203A
:1054780004F090F9012000F0A7F80A2004F08AF956
:10548800E62000F0A1F82F2000F08AF8FF2000F0B5
:1054980087F8FF2000F084F8B02000F095F820206D
:1054A80000F07EF8002000F07BF8032000F078F888
:1054B80040F21F3000F074F8012000F071F840F25B
:1054C800DF1000F06DF8002000F06AF8B42000F05A
:1054D8007BF8042000F064F840F21F4000F060F808
:1054E800002000F05DF82E2000F05AF8002000F0AF
:1054F80057F8002000F054F8002000F051F8002080
:1055080000F04EF8B62000F05FF8022000F048F8EE
:105518004FF4037000F044F8002000F041F8172021
:1055280000F03EF8152000F03BF8002000F038F8B5
:10553800002000F035F8F02000F046F8032000F0D5
:105548002FF8292000F040F8D02000F03DF8002086
:1055580000F026F8BE2000F037F8052000F020F80B
:10556800FE2000F01DF8012000F01AF8002000F0DD
:1055780017F8002000F014F8002000F011F8B82007
:1055880000F022F8032000F00BF8012000F008F8E2
:10559800BA2000F019F8012000F002F800BF80BD21
:1055A80080B483B000AF0346FB80FB889BB2FB80CE
:1055B800044BFA8892B25A8000BF0C37BD4680BCB3
:1055C800704700BFFE07006C80B483B000AF03468D
:1055D800FB80FB889BB2FB80044BFA8892B21A804E
:1055E80000BF0C37BD4680BC704700BFFE07006C8B
:1055F80080B483B000AF03460A46FB801346BB80E5
:10560800054AFB881380044ABB88538000BF0C37C7
:10561800BD4680BC704700BFFE07006C80B483B0F5
:1056280000AF786000BF7B685A1E7A60002BFAD101
:1056380000BF00BF0C37BD4680BC704780B582B044
:1056480000AF0220FFF7EAFF044B5B889BB2FB80A8
:10565800FB889BB218460837BD4680BDFE07006C24
:1056680080B400AF034B044A12891A8000BFBD46BC
:1056780080BC7047FE07006C7404002080B582B0BF
:1056880000AF03460A46FB801346BB80654B9B88E8
:1056980041F66312934267D1624B9B79002B1ED16E
:1056A800604B1A88FB88D31A9BB2013BFB805D4B89
:1056B8005B891846FFF788FF0020FFF771FF00207D
:1056C800FFF76EFFFB881B0A9BB21846FFF768FFBF
:1056D800FB88DBB29BB21846FFF762FF21E0514B13
:1056E8005B891846FFF770FFFB881B0A9BB21846B8
:1056F800FFF756FFFB88DBB29BB21846FFF750FF57
:10570800484B1B88013B1B129BB21846FFF748FF0A
:10571800444B1B88013B9BB2DBB29BB21846FFF798
:105728003FFF404B9B891846FFF74EFFBB881B0A7B
:105738009BB21846FFF734FFBB88DBB29BB2184612
:10574800FFF72EFF374B5B88013B1B129BB21846B5
:10575800FFF726FF334B5B88013B9BB2DBB29BB262
:105768001846FFF71DFF58E02E4B9B8845F2105254
:10577800934230D12B4B5B891846FFF725FFFB88F6
:105788001B0A9BB21846FFF70BFF264B5B890133B8
:105798009BB21846FFF718FFFB88DBB29BB218468E
:1057A800FFF7FEFE1F4B9B891846FFF70DFFBB88CE
:1057B8001B0A9BB21846FFF7F3FE1A4B9B8901336D
:1057C8009BB21846FFF700FFBB88DBB29BB21846B6
:1057D800FFF7E6FE21E0134B5B891846FFF7F4FE5E
:1057E800FB881B0A9BB21846FFF7DAFEFB88DBB280
:1057F8009BB21846FFF7D4FE0A4B9B891846FFF761
:10580800E3FEBB881B0A9BB21846FFF7C9FEBB889C
:10581800DBB29BB21846FFF7C3FE00BF0837BD4690
:1058280080BD00BF7404002080B584B000AF03467B
:10583800FB710023FB810023BB819C4B9B79012BCF
:1058480005D19A4B9B8841F66312934209D1974B35
:105858009B79002B34D1954B9B8841F66312934278
:105868002ED1FB79072B2BD801A252F823F000BFC9
:10587800995800089F580008A5580008AB58000818
:10588800B1580008B7580008BD580008C3580008A8
:105898000623FB7114E00723FB7111E00423FB715D
:1058A8000EE00523FB710BE00123FB7108E00023E8
:1058B800FB7105E00323FB7102E00223FB7100BFCB
:1058C800FB79072B35D801A252F823F03B59000881
:1058D800F5580008FF58000809590008135900082E
:1058E8001D5900082759000831590008FB8943F061
:1058F8008003FB811DE0FB8943F04003FB8118E036
:10590800FB8943F0C003FB8113E0FB8943F02003CC
:10591800FB810EE0FB8943F06003FB8109E0FB8912
:1059280043F0A003FB8104E0FB8943F0E003FB8123
:1059380000BF3623BB815D4B9B8845F210529342D2
:1059480002D14FF45853BB81584B9B8849F24132DE
:1059580093420BD0554B9B8847F28972934205D0EE
:10596800524B9B8847F29672934203D1FB8943F0CE
:105978000803FB81FA89BB8911461846FFF738FEF0
:105988004A4B9B8841F66312934225D0FB8903F06A
:105998002003002B10D0454B1A88444B5B889A4251
:1059A8001AD2424B1B887B81404B5A883F4B1A8046
:1059B8003E4A7B8953800FE03C4B1A883B4B5B88FF
:1059C8009A4209D9394B1B887B81384B5A88374B07
:1059D8001A80364A7B895380344B9B8845F2105293
:1059E800934265D1314B5B891846FFF7EDFD0020E6
:1059F800FFF7D6FD2D4B5B8901339BB21846FFF7A5
:105A0800E3FD0020FFF7CCFD284B5B8902339BB2F6
:105A18001846FFF7D9FD254B1B88013B1B129BB28B
:105A28001846FFF7BDFD214B5B8903339BB218462F
:105A3800FFF7CAFD1D4B1B88013B9BB2DBB29BB233
:105A48001846FFF7ADFD194B9B891846FFF7BCFDBB
:105A58000020FFF7A5FD154B9B8901339BB2184623
:105A6800FFF7B2FD0020FFF79BFD104B9B89023327
:105A78009BB21846FFF7A8FD0C4B5B88013B1B1235
:105A88009BB21846FFF78CFD084B9B8903339BB2EA
:105A98001846FFF799FD054B5B88013B9BB2DBB2CB
:105AA8009BB21846FFF77CFD3AE000BF7404002063
:105AB8001D4B5B891846FFF787FD0020FFF770FD37
:105AC8000020FFF76DFD184B1B88013B1B129BB292
